:1000000019C026C0CAC024C023C022C021C020C03D
:100010001FC01EC0FDC0FEC03EC160C18FC1B8C1BF
:10002000B9C1BAC1BBC1BCC1BDC1C1C1D9AD9E8836
:100030006729000011241FBECFE9CDBF20E0A0E654
:10004000B0E001C01D92A136B207E1F7A7D0B1C15F
:10005000D7CF15BC806287B986B1806C86B93699D6
:10006000FECF95B1379881E085BD80E0E82FF0E0C4
:10007000E45DFF4FE4919E1710F48F5FF7CF089572
:10008000B99A80FF0BC0E7E6F1E03197F1F700C0C5
:100090000000B998FEEEFA95F1F707C090EF9A9537
:1000A000F1F7B998EEEEEA95F1F78695615041F7D0
:1000B000089598E0B99A21EE2A95F1F7B998EFEDF5
:1000C000EA95F1F780FF06C0EFE4F1E03197F1F730
:1000D00000C000008695915069F708951F93CF9353
:1000E000DF93EC01162F8FE186BF87E089BDB99AB7
:1000F0008BE89AE00197F1F700C00000B99885E419
:1001000095E00197F1F700C000008C2FCF3FD1059B
:1001100021F018F0CEDF8D2F03C0CBDF8C2F809520
:10012000C8DF812FC6DF812F8095C3DFB99A91EE9A
:100130009A95F1F7B9988FED8A95F1F786B390E02B
:100140008095909589709927892B19F18FED9EE202
:100150000197F1F700C00000B99A8BE89AE0019787
:10016000F1F700C00000B99882EA92E00197F1F738
:1001700000C00000B99A91EE9A95F1F7B9988FED09
:100180008A95F1F78FE991E40197F1F700C000003B
:10019000D5CFDF91CF911F910895189589E088BB45
:1001A00093E29FBD83BF93E096B990E898B996E13A
:1001B00094BB91E095BD90E29BBF85BB789485B7D9
:1001C000877E806185BFCDE1DFE110E285B7806287
:1001D00085BF889585B78F7D85BF8BE291E00197BC
:1001E000F1F700C00000B09903C081E032DF07C022
:1001F000B399ECCF82E02DDF882341F38A5F90E052
:10020000FC013197EC30F10508F7E65FFF4F0994E8
:1002100068E0C9C016BF87E089BD8091600088236F
:1002200019F04BE058E302C04BE050E38EE020E0D1
:1002300030E2B90164237523672B41F0B998EAE0F5
:10024000F1E03197F1F700C0B99A07C0B99AEAE036
:10025000F1E03197F1F700C0B998E9E0F1E03197AA
:10026000F1F736952795815021F7B9988BE498E6F8
:100270000197F1F700C0000086B390E0809590955B
:1002800089709927892B91F69091600081E08927E8
:10029000809360009BCFC6BF87E089BDB99AEFEC21
:1002A000F2E03197F1F700C00000B998FEEEFA9540
:1002B000F1F767E085E1E4DE65E081E0E1DE83EA15
:1002C0009FE10197F1F700C0000086B390E08095B0
:1002D000909589709927892B09F778CFD6BF87E049
:1002E00089BDB99AE5E4F5E03197F1F700C0000067
:1002F000B99885E495E00197F1F700C0000087E028
:10030000D8DE87E0D6DE82E0D4DE8DEFD2DEB99A89
:1003100091EE9A95F1F7B998EFEDEA95F1F78FE83C
:1003200093E30197F1F700C0000086B390E0809559
:10033000909589709927892BA1F648CF68E084E0D1
:100340009BEACCDEC6BF87E089BDB99AEFECF2E04C
:100350003197F1F700C00000B998FEEEFA95F1F779
:1003600067E085E18DDE68E081E08ADE65E084EEAD
:1003700087DE83EA9FE10197F1F700C0000086B3B2
:1003800090E08095909589709927892BF1F61ECF82
:1003900061E009C062E007C063E005C064E003C03B
:1003A00065E001C066E084E090E098DE0FCF67E092
:0603B000FACFF894FFCF24
:00000001FF
